:1000000010C01FC01EC01DC01CC01BC01BC029C00B
:1000100018C054C016C015C014C013C012C011C0FF
:1000200010C011241FBECFE5D2E0DEBFCDBF20E05F
:10003000A0E6B0E001C01D92A136B207E1F78FD073
:1000400027C2DECF1F920F920FB60F9211248F930B
:100050008BB381608BBB8F910F900FBE0F901F9061
:1000600018951F920F920FB60F9211248F938BB396
:100070008E7F8BBB8F910F900FBE0F901F901895A6
:1000800088B599B54AB55BB520916000222319F077
:10009000213059F010C0019641505109841795073D
:1000A00051F421E02093600006C001978230910551
:1000B00011F41092600099BD88BD08951F920F92AF
:1000C0000FB60F9211242F933F934F935F936F932B
:1000D0007F938F939F93AF93BF93EF93FF93D0DF63
:1000E000FF91EF91BF91AF919F918F917F916F9110
:1000F0005F914F913F912F910F900FBE0F901F90E6
:1001000018952EB529602EBD2CB126602CB920E2A1
:1001100033E03BBD2ABD20E030E048E454E44DD15B
:1001200092D079BD68BD089590B7926090BF93B7A3
:10013000956093BF682F70E080E090E0B2D020E03F
:1001400030E04AE750E439D120E030E040E85FE3B6
:1001500015D079D066BF89B7826089BF08958AB308
:1001600081608ABB8AB38D7F8ABB82E0DDDF60E07D
:1001700070E080E09EE3C5DF7894FFCF5058BB2746
:10018000AA270ED0E0C0D1D030F0D6D020F031F484
:100190009F3F11F41EF4C6C00EF4E095E7FBBCC00F
:1001A000E92FE2D080F3BA17620773078407950737
:1001B00018F071F49EF5FAC00EF4E0950B2EBA2FEC
:1001C000A02D0B01B90190010C01CA01A00111245D
:1001D000FF27591B99F0593F50F4503E68F11A1609
:1001E000F040A22F232F342F4427585FF3CF46959A
:1001F00037952795A795F0405395C9F77EF41F16BC
:10020000BA0B620B730B840BBAF09150A1F0FF0F85
:10021000BB1F661F771F881FC2F70EC0BA0F621F71
:10022000731F841F48F4879577956795B795F79561
:100230009E3F08F0B3CF9395880F08F09927EE0FF3
:1002400097958795089598D088F09F5790F0B92F8B
:100250009927B751A0F0D1F0660F771F881F991F1B
:100260001AF0BA95C9F712C0B13081F09FD0B1E051
:1002700008959CC0672F782F8827B85F39F0B93F61
:10028000CCF3869577956795B395D9F73EF490951D
:100290008095709561957F4F8F4F9F4F0895E8949B
:1002A00009C097FB3EF490958095709561957F4FBE
:1002B0008F4F9F4F9923A9F0F92F96E9BB2793956C
:1002C000F695879577956795B795F111F8CFFAF47C
:1002D000BB0F11F460FF1BC06F5F7F4F8F4F9F4FAD
:1002E00016C0882311F096E911C0772321F09EE80B
:1002F000872F762F05C0662371F096E8862F70E071
:1003000060E02AF09A95660F771F881FDAF7880F4A
:100310009695879597F9089597F99F6780E870E01B
:1003200060E008959FEF80EC089500240A9416166B
:10033000170618060906089500240A9412161306D3
:10034000140605060895092E0394000C11F4882361
:1003500052F0BB0F40F4BF2B11F460FF04C06F5F7D
:100360007F4F8F4F9F4F089557FD9058440F551F53
:1003700059F05F3F71F04795880F97FB991F61F027
:100380009F3F79F087950895121613061406551F9E
:10039000F2CF4695F1DF08C0161617061806991F0A
:1003A000F1CF86957105610508940895E894BB27FF
:1003B00066277727CB0197F908950AD0C4CFB5DF18
:1003C00028F0BADF18F0952309F0A6CFABCFEFCF16
:1003D000CBDFA8F39923D9F35523C9F3950F50E048
:1003E000551FAA27EE27FF27BB27002408946795EF
:1003F00020F4E20FF31FB41F0A1E220F331F441F05
:10040000AA1F6695A9F7779530F4F30FB41F0A1E5B
:10041000121E08F46395330F441FAA1F221F7695FE
:1004200099F7879520F4B40F0A1E121E631F440F1C
:10043000AA1F221F331F8695A9F7862F712D602DC5
:1004400011249F5750408AF0E1F088234AF0EE0FC4
:10045000FF1FBB1F661F771F881F91505040A9F7D1
:100460009E3F510570F058CFA2CF5F3FECF3983E0E
:10047000DCF3869577956795B795F795E7959F5F38
:10048000C1F7FE2B880F911D9695879597F90895D2
:04049000F894FFCF0E
:00000001FF
