S016000052657A7A476C61737365735F56312E73726563AB
S11300000C9434000C9451000C9451000C94510045
S11300100C9451000C9451000C9451000C94510018
S11300200C9451000C9451000C9451000C94510008
S11300300C9451000C9451000C9485000C945100C4
S11300400C9451000C9451000C9451000C945100E8
S11300500C9451000C9451000C9451000C945100D8
S11300600C9451000C94510011241FBECFEFD8E022
S1130070DEBFCDBF11E0A0E0B1E0E0E4F8E102C0F2
S113008005900D92AA3AB107D9F723E0AAEAB1E0A4
S113009001C01D92A832B207E1F70E94D9070C945F
S11300A01E0C0C940000FC0184B1806484B9A5B1D9
S11300B0AF7B55B15064BFB7F89420C09F012F5F48
S11300C03F4F408168E055B947FFA5B9440F000090
S11300D007F4A5B9000007F407F407F407F407F4DC
S11300E007F407F407F407F407F407F407F407F434
S11300F007F407F46A9539F7BC01F901CB010197BC
S1130100672B09F0DBCFBFBF08951F920F920FB684
S11301100F9211242F933F934F935F936F937F9389
S11301208F939F93AF932091B6013091B701409183
S1130130B8015091B9016091BA017091BB018091ED
S1130140BC019091BD01A1E00E94F00B2093B60187
S11301503093B7014093B8015093B9016093BA0149
S11301607093BB018093BC019093BD0182E886BD6E
S1130170AF919F918F917F916F915F914F913F913B
S11301802F910F900FBE0F901F901895CF92DF9272
S1130190EF92FF92CF93DF93C42F242F30E0322FBE
S11301A02227032E000C440B550B0E94D10B2C2F3D
S11301B030E040E050E00E94D10B8FEF90E0A0E0EF
S11301C0B0E0BC01CD01621B730B840B950B0E9444
S11301D0B40A6B017C0120E030E04AEA52E40E9458
S11301E0050A88237CF520E030E040E450E4C701B0
S11301F0B6010E94640B6B017C019B01AC0160E0C1
S113020070E08FE793E40E94980920E030E04FE724
S113021053E40E940A0ACAEAD1E0688379838A8394
S11302209B831C821D821E821F8220E030E04FE7E8
S113023053E4C701B6010E940A0A688779878A874E
S11302409B876FC020E030E04AE253E4C701B60167
S11302500E94050A88239CF520E030E04AEA52E433
S1130260C701B6010E949809CAEAD1E0188219822E
S11302701A821B8220E030E040E450E40E94640BC8
S11302806B017C0120E030E04FE753E40E940A0A4E
S11302906C837D838E839F83A701960160E070E069
S11302A08FE793E40E94980920E030E04FE753E49D
S11302B00E940A0A688779878A879B8732C020E070
S11302C030E04AE253E4C701B6010E94980920E0F5
S11302D030E040E450E40E94640B6B017C0120E0B8
S11302E030E04FE753E40E940A0ACAEAD1E0688387
S11302F079838A839B83A701960160E070E08FE78E
S113030093E40E94980920E030E04FE753E40E9410
S11303100A0A6C837D838E839F83188619861A86C6
S11303201B868AEA91E0DF91CF91FF90EF90DF90F6
S1130330CF9008952F923F924F925F926F927F9247
S11303408F929F92AF92BF92CF92DF92EF92FF92E1
S11303500F931F93CF93DF93CDB7DEB764970FB698
S1130360F894DEBF0FBECDBF698B7A8B8B8B9C8BD1
S1130370A982BA82CB82DC82ED82FE820F83188747
S113038029873A874B875C878DA5811105C00F2E7D
S1130390FCE3DF2EF02D01C0D12C8FA5811161C1AA
S11303A0E12CF12C2D2CA4C2F701EB5DFE4F308023
S11303B0C32CD12C4DC18EA5882341F1C501B401B4
S11303C00E94B40A29A53AA54BA55CA50E94640B1A
S11303D020E030E040E251E40E94640B0E94830A72
S11303E06F737727FB01E75DFE4F608170E080E06B
S11303F090E00E94B20A20E030E04FE753E40E940C
S11304000A0A6D877E878F87988B08C080E090E00A
S1130410A0E8BFE38D879E87AF87B88B93E0E9168A
S1130420F10409F05CC0B6010D2C000C880B990B8B
S11304300E94B40A9B01AC010E9499092B013C0162
S1130440B7016D5F7F4F072E000C880B990B0E943C
S1130450B40AA30192010E9499092B013C01632D66
S113046070E080E090E00E94B20A9B01AC01C301FD
S1130470B2010E940A0A698B7A8B8B8B9C8B66274C
S11304807727CB01681979098A099B090E94B40A64
S11304902FE832EC45E75CE30E94640B20E030E097
S11304A040E251E40E94640B2B013C0120E030E067
S11304B040E852E469897A898B899C890E94640B9B
S11304C09B01AC01C301B2010E9499090E94830AF5
S11304D06F737727FB01E75DFE4F608161C0B70151
S11304E00F2C000C880B990B0E94B40A20E030E01A
S11304F040E350E40E94640B2B013C01B6010D2C37
S1130500000C880B990B0E94B40A9B01AC010E9459
S113051099099B01AC01C301B2010E9499092B0105
S11305203C01632D70E080E090E00E94B20A9B01E0
S1130530AC01C301B2010E940A0A698B7A8B8B8BCE
S11305409C8B66277727CB01681979098A099B094F
S11305500E94B40A2FE832EC45E75CE30E94640B86
S113056020E030E040E251E40E94640B2B013C01A6
S113057020E030E040E852E469897A898B899C89DB
S11305800E94640B9B01AC01C301B2010E94990952
S11305900E94830A6F737727FB01E759FE4F60813E
S11305A0A1E0CA1AD1088601020D111D49805A80A2
S11305B06B807C8070E080E090E00E94B40A698BDC
S11305C07A8B8B8B9C8B9B01AC01C301B2010E9483
S11305D0640B9B01AC016D857E858F8598890E9493
S11305E0640B0E947C0AC801880F991F080F191F09
S11305F002541E4FF80161832D813E814F8158853D
S113060069897A898B899C890E94640B9B01AC015E
S11306106D857E858F8598890E94640B0E947C0A73
S1130620D8016C9329853A854B855C8569897A89DB
S11306308B899C890E94640B9B01AC016D857E852E
S11306408F8598890E94640B0E947C0AF80162835A
S11306501C141D040CF4AFCE230CFFEFEF1AFF0A99
S113066007C0E12CF12C2D2C89889A88AB88BC8892
S113067084E0E816F10408F497CE3FC1F701EB5D7E
S1130680FE4F3080C32CD12C2BC169897A898B8988
S11306909C890E94B40A2B013C019B01AC0169A511
S11306A07AA58BA59CA50E94640B20E030E040E273
S11306B051E40E94640B0E94830A6F737727FB0145
S11306C0E75DFE4F608170E080E090E00E94B20A36
S11306D020E030E04FE753E40E940A0A6D877E87EA
S11306E08F87988B93E0E916F10409F051C0B601A5
S11306F00D2C000C880B990B0E94B40A9B01AC01D1
S11307000E9499094B015C01B7016D5F7F4F072E71
S1130710000C880B990B0E94B40AA50194010E9455
S113072099094B015C01632D70E080E090E00E9428
S1130730B20A9B01AC01C501B4010E940A0A4B0133
S11307405C012FE832EC45E75CE3C301B2010E948F
S1130750640B20E030E040E251E40E94640B2B0182
S11307603C0120E030E040E852E4C501B4010E94BD
S1130770640B9B01AC01C301B2010E9499090E9460
S1130780830A6F737727FB01E75DFE4F608156C0D4
S1130790B7010F2C000C880B990B0E94B40A20E0BF
S11307A030E040E350E40E94640B4B015C01B6016D
S11307B00D2C000C880B990B0E94B40A9B01AC0110
S11307C00E9499099B01AC01C501B4010E949909D9
S11307D04B015C01632D70E080E090E00E94B20A5E
S11307E09B01AC01C501B4010E940A0A4B015C01E2
S11307F02FE832EC45E75CE3C301B2010E94640BCD
S113080020E030E040E251E40E94640B2B013C0103
S113081020E030E040E852E4C501B4010E94640BDA
S11308209B01AC01C301B2010E9499090E94830A91
S11308306F737727FB01E759FE4F6081A1E0CA1A65
S1130840D1088601020D111D89809A80AB80BC807D
S113085070E080E090E00E94B40A2B013C019B010F
S1130860AC01C501B4010E94640B9B01AC016D8510
S11308707E858F8598890E94640B0E947C0AC8013A
S1130880880F991F080F191F02541E4FF801618326
S11308902D813E814F815885C301B2010E94640BB2
S11308A09B01AC016D857E858F8598890E94640BC0
S11308B00E947C0AD8016C9329853A854B855C8516
S11308C0C301B2010E94640B9B01AC016D857E855E
S11308D08F8598890E94640B0E947C0AF8016283C8
S11308E01C141D040CF4D1CE230CFFEFEF1AFF0AE5
S11308F084E0E816F10408F4C1CE64960FB6F894C7
S1130900DEBF0FBECDBFDF91CF911F910F91FF903E
S1130910EF90DF90CF90BF90AF909F908F907F909B
S11309206F905F904F903F902F9008952F923F9239
S11309304F925F926F927F928F929F92AF92BF92EB
S1130940CF92DF92EF92FF920F931F93CF93DF9397
S1130950CDB7DEB728970FB6F894DEBF0FBECDBF74
S11309604B015C01011103C02CE32E8301C01E82E4
S1130970C11077C1212C312CF6C2F101EB5DFE4F81
S113098030813D83832F90E098878F835CC1E3E0BF
S11309902E16310409F053C02F813885B901330F65
S11309A0880B990B0E94B40A9B01AC010E9499091F
S11309B06B017C01B1016D5F7F4F072E000C880B2A
S11309C0990B0E94B40AA70196010E9499096B0130
S11309D07C013D81632F70E080E090E00E94B20AC8
S11309E09B01AC01C701B6010E940A0A6B017C019C
S11309F0C501B4010E94B40A2FE832EC45E75CE378
S1130A000E94640B20E030E040E251E40E94640B59
S1130A102B013C0120E030E040E852E4C701B6017C
S1130A200E94640BA30192010E9499090E94830A07
S1130A306F737727FB01E75DFE4F6081B7C081E0EC
S1130A402816310409F05BC0B101032C000C880B9B
S1130A50990B0E94B40A20E030E040E350E40E9485
S1130A60640B6B017C01EF81F885BF01FF0F880BDC
S1130A70990B0E94B40A9B01AC010E9499099B0145
S1130A80AC01C701B6010E9499096B017C01FD818B
S1130A906F2F70E080E090E00E94B20A9B01AC01ED
S1130AA0C701B6010E940A0A6B017C01C501B401A9
S1130AB00E94B40A2FE832EC45E75CE30E94640B21
S1130AC020E030E040E251E40E94640B2B013C0141
S1130AD020E030E040E852E4C701B6010E94640B14
S1130AE09B01AC01C301B2010E9499090E94830ACF
S1130AF06F737727FB01E759FE4F608157C02F8141
S1130B003885B901330F880B990B0E94B40A9B01F5
S1130B10AC010E9499096B017C01B101032C000C0A
S1130B20880B990B0E94B40AA70196010E949909A7
S1130B306B017C013D81632F70E080E090E00E94B6
S1130B40B20A9B01AC01C701B6010E940A0A2B013B
S1130B503C0166277727CB01681979098A099B0923
S1130B600E94B40A2FE832EC45E75CE30E94640B70
S1130B7020E030E040E251E40E94640B6B017C0110
S1130B8020E030E040E852E4C301B2010E94640B6B
S1130B909B01AC01C701B6010E9499090E94830A16
S1130BA06F737727FB01E759FE4F60818F8198852A
S1130BB0019798878F837C019E81E90EF11C009137
S1130BC0260310912703F8014080518062807380CE
S1130BD070E080E090E00E94B40A69837A838B839A
S1130BE09C839B01AC01C301B2010E94640B0E946F
S1130BF07C0A3701660C771CC3018E0D9F1D9C0176
S1130C0022543E4F3901F9016183F8012481358171
S1130C104681578169817A818B819C810E94640B12
S1130C200E947C0AF3016083F801208531854285A6
S1130C30538569817A818B819C810E94640B0E9417
S1130C407C0AF30162832F813885121613060CF493
S1130C509ECE3E818D81380F3E839FEF291A390A3B
S1130C6002C0212C312CE4E02E16310408F485CE88
S1130C707FC1F101EB5DFE4F20812D83822F90E037
S1130C8098878F8363C1E3E02E16310409F05AC0BC
S1130C902F813885B901330F880B990B0E94B40A50
S1130CA09B01AC010E9499096B017C01B1016D5F4C
S1130CB07F4F072E000C880B990B0E94B40AA701E2
S1130CC096010E9499096B017C013D81632F70E0BC
S1130CD080E090E00E94B20A9B01AC01C701B6011A
S1130CE00E940A0A6B017C0166277727CB016819E9
S1130CF079098A099B090E94B40A2FE832EC45E776
S1130D005CE30E94640B20E030E040E251E40E9486
S1130D10640B2B013C0120E030E040E852E4C701C1
S1130D20B6010E94640B9B01AC01C301B2010E9495
S1130D3099090E94830A6F737727FB01E75DFE4FD1
S1130D406081B7C081E02816310409F060C0B101A8
S1130D50032C000C880B990B0E94B40A20E030E0AD
S1130D6040E350E40E94640B6B017C01EF81F88541
S1130D70BF01FF0F880B990B0E94B40A9B01AC01C1
S1130D800E9499099B01AC01C701B6010E9499090F
S1130D906B017C01FD816F2F70E080E090E00E9488
S1130DA0B20A9B01AC01C701B6010E940A0A6B0199
S1130DB07C0166277727CB01681979098A099B0981
S1130DC00E94B40A2FE832EC45E75CE30E94640B0E
S1130DD020E030E040E251E40E94640B2B013C012E
S1130DE020E030E040E852E4C701B6010E94640B01
S1130DF09B01AC01C301B2010E9499090E94830ABC
S1130E006F737727FB01E759FE4F608152C02F8132
S1130E103885B901330F880B990B0E94B40A9B01E2
S1130E20AC010E9499096B017C01B101032C000CF7
S1130E30880B990B0E94B40AA70196010E94990994
S1130E406B017C013D81632F70E080E090E00E94A3
S1130E50B20A9B01AC01C701B6010E940A0A2B0128
S1130E603C01C501B4010E94B40A2FE832EC45E705
S1130E705CE30E94640B20E030E040E251E40E9415
S1130E80640B6B017C0120E030E040E852E4C301D4
S1130E90B2010E94640B9B01AC01C701B6010E9420
S1130EA099090E94830A6F737727FB01E759FE4F64
S1130EB060818F819885019798878F837C019E81BB
S1130EC0E90EF11C0091260310912703F8014080DC
S1130ED051806280738070E080E090E00E94B40AE8
S1130EE069837A838B839C839B01AC01C301B20128
S1130EF00E94640B0E947C0A3701660C771CC301B4
S1130F008E0D9F1D9C0122543E4F3901F9016183CE
S1130F10F801248135814681578169817A818B81E9
S1130F209C810E94640B0E947C0AF3016083F80197
S1130F30208531854285538569817A818B819C81A5
S1130F400E94640B0E947C0AF30162832F8138851E
S1130F50121613060CF497CE3E818D81380F3E8312
S1130F609FEF291A390AE4E02E16310408F481CEE1
S1130F7028960FB6F894DEBF0FBECDBFDF91CF9198
S1130F801F910F91FF90EF90DF90CF90BF90AF90A3
S1130F909F908F907F906F905F904F903F902F9095
S1130FA0089582E886BD82E080936E0083E085BD6B
S1130FB008950E94D10780E8809361001092B601E1
S1130FC01092B7011092B8011092B9011092BA01AF
S1130FD01092BB011092BC011092BD0188E790E011
S1130FE00BC00197FC01EE0FFF1FE80FF91FE2543D
S1130FF0FE4F1182108212821816190694F3789407
S11310003091B6012091B7019091B8018091B90156
S11310104091BA014091BB014091BC014091BD0196
S1131020F32E122FD92FC82F432E522E692E782E2D
S113103040912401632F722F892F9C2F0E94C60098
S1131040909327038093260384EF481681E0580683
S113105061047104DCF4CC24C394E12C01E02AE0A3
S113106037ED43E25CE36F2D712F8D2F9C2F0E948F
S11310709604C12C00E02AE037ED43E25CE36F2DD7
S1131080712F8D2F9C2F0E94960445C198E049161C
S113109097E05906610471040CF05DC0C1E0CF9380
S11310A0CF93CF930F2EFCE33F2EF02D3F920F2EC4
S11310B0F3E28F2EF02D8F920F2EF7ED9F2EF02D51
S11310C09F92DAE0DF93A0900001B0900101C090FC
S11310D00201D0900301E0900401F0900501009119
S11310E006011091070120910801309109014091F6
S11310F00A0150910B01C301B2010E949A011F928F
S1131100CF931F923F928F929F92DF93A0901801EA
S1131110B0901901C0901A01D0901B01E0901C01FD
S1131120F0901D0100911E0110911F0120912001DA
S1131130309121014091220150912301C301B20158
S11311400E949A018DB79EB70E960FB6F8949EBF73
S11311500FBE8DBFE0C098EB49169BE059066104B1
S113116071040CF05DC01F92C1E0CF93CF930F2E9A
S1131170FCE33F2EF02D3F920F2EF3E28F2EF02D45
S11311808F920F2EF7ED9F2EF02D9F92DAE0DF93D2
S1131190A0901801B0901901C0901A01D0901B01C1
S11311A0E0901C01F0901D0100911E0110911F019F
S11311B0209120013091210140912201509123017D
S11311C0C301B2010E949A01CF93CF931F923F9221
S11311D08F929F92DF93A0900001B0900101C09084
S11311E00201D0900301E0900401F0900501009108
S11311F006011091070120910801309109014091E5
S11312000A0150910B01C301B2010E949A018DB7EA
S11312109EB70E960FB6F8949EBF0FBE8DBF7BC0CF
S113122098ED49169EE05906610471040CF05DC006
S1131230C1E0CF93CF93CF930F2EFCE33F2EF02D3D
S11312403F920F2EF4E38F2EF02D8F920F2EF9E3A1
S11312509F2EF02D9F92D8E5DF93A0900C01B090C3
S11312600D01C0900E01D0900F01E0901001F0909C
S11312701101009112011091130120911401309178
S113128015014091160150911701C301B2010E944A
S11312909A011F92CF931F923F928F929F92DF9356
S11312A0A0900C01B0900D01C0900E01D0900F01E0
S11312B0E0901001F09011010091120110911301BE
S11312C0209114013091150140911601509117019C
S11312D0C301B2010E949A018DB79EB70E960FB654
S11312E0F8949EBF0FBE8DBF16C0C12CE12C01E047
S11312F02AE037ED43E25CE3C301B2010E949604A5
S1131300CC24C39400E02AE037ED43E25CE3C3015C
S1131310B2010E9496048FE097E20197F1F700C0B2
S1131320000068E671E08EEB91E00E94530068CE05
S11313305058BB27AA270E94B0090C942A0B0E947C
S11313401C0B38F00E94230B20F039F49F3F19F452
S113135026F40C94190B0EF4E095E7FB0C94130B94
S1131360E92F0E943B0B58F3BA17620773078407EF
S1131370950720F079F4A6F50C945D0B0EF4E09536
S11313800B2EBA2FA02D0B01B90190010C01CA013B
S1131390A0011124FF27591B99F0593F50F4503EE6
S11313A068F11A16F040A22F232F342F4427585FD8
S11313B0F3CF469537952795A795F0405395C9F7F0
S11313C07EF41F16BA0B620B730B840BBAF09150A8
S11313D0A1F0FF0FBB1F661F771F881FC2F70EC047
S11313E0BA0F621F731F841F48F48795779567951A
S11313F0B795F7959E3F08F0B0CF9395880F08F006
S11314009927EE0F9795879508950E94EF0A08F49F
S113141081E008950E941E0A0C942A0B0E94230B5B
S113142058F00E941C0B40F029F45F3F29F00C9403
S1131430130B51110C945E0B0C94190B0E943B0B73
S113144068F39923B1F3552391F3951B550BBB27EF
S1131450AA2762177307840738F09F5F5F4F220F34
S1131460331F441FAA1FA9F335D00E2E3AF0E0E82B
S113147032D091505040E695001CCAF72BD0FE2F75
S113148029D0660F771F881FBB1F26173707480709
S1131490AB07B0E809F0BB0B802DBF01FF279358C1
S11314A05F4F3AF09E3F510578F00C94130B0C9467
S11314B05E0B5F3FE4F3983ED4F38695779567958A
S11314C0B795F7959F5FC9F7880F911D96958795F6
S11314D097F90895E1E0660F771F881FBB1F621715
S11314E073078407BA0720F0621B730B840BBA0BD3
S11314F0EE1F88F7E09508950E94830A6894B1115D
S11315000C945E0B08950E94430B88F09F5798F04B
S1131510B92F9927B751B0F0E1F0660F771F881FF4
S1131520991F1AF0BA95C9F714C0B13091F00E940E
S11315305D0BB1E008950C945D0B672F782F88271D
S1131540B85F39F0B93FCCF3869577956795B39535
S1131550D9F73EF490958095709561957F4F8F4FA4
S11315609F4F0895E89409C097FB3EF490958095A9
S1131570709561957F4F8F4F9F4F9923A9F0F92F55
S113158096E9BB279395F695879577956795B795D3
S1131590F111F8CFFAF4BB0F11F460FF1BC06F5FB9
S11315A07F4F8F4F9F4F16C0882311F096E911C0CB
S11315B0772321F09EE8872F762F05C0662371F0EC
S11315C096E8862F70E060E02AF09A95660F771F00
S11315D0881FDAF7880F9695879597F90895990FDC
S11315E00008550FAA0BE0E8FEEF16161706E807E9
S11315F0F907C0F012161306E407F50798F0621B0A
S1131600730B840B950B39F40A2661F0232B242BDE
S1131610252B21F408950A2609F4A140A6958FEFFD
S1131620811D811D089597F99F6780E870E060E04F
S113163008959FEF80EC089500240A941616170667
S113164018060906089500240A94121613061406AF
S113165005060895092E0394000C11F4882352F012
S1131660BB0F40F4BF2B11F460FF04C06F5F7F4FCA
S11316708F4F9F4F089557FD9058440F551F59F0B1
S11316805F3F71F04795880F97FB991F61F09F3F6B
S113169079F087950895121613061406551FF2CF94
S11316A04695F1DF08C0161617061806991FF1CFE4
S11316B086957105610508940895E894BB2766270B
S11316C07727CB0197F908950E94770B0C942A0B86
S11316D00E941C0B38F00E94230B20F0952311F07C
S11316E00C94130B0C94190B11240C945E0B0E9494
S11316F03B0B70F3959FC1F3950F50E0551F629F0C
S1131700F001729FBB27F00DB11D639FAA27F00D56
S1131710B11DAA1F649F6627B00DA11D661F829F7D
S11317202227B00DA11D621F739FB00DA11D621F62
S1131730839FA00D611D221F749F3327A00D611D7F
S1131740231F849F600D211D822F762F6A2F112461
S11317509F5750409AF0F1F088234AF0EE0FFF1F94
S1131760BB1F661F771F881F91505040A9F79E3FEB
S1131770510580F00C94130B0C945E0B5F3FE4F363
S1131780983ED4F3869577956795B795F795E79541
S11317909F5FC1F7FE2B880F911D9695879597F94A
S11317A00895052E97FB1EF400940E94E80B57FD44
S11317B007D00E94FC0B07FC03D04EF40C94E80BFA
S11317C050954095309521953F4F4F4F5F4F089569
S11317D090958095709561957F4F8F4F9F4F089599
S11317E00024A7FD00942A0F301D401D501D601DCC
S11317F0701D801D901D0895A1E21A2EAA1BBB1B0B
S1131800FD010DC0AA1FBB1FEE1FFF1FA217B307C8
S1131810E407F50720F0A21BB30BE40BF50B661FDE
S1131820771F881F991F1A9469F7609570958095A2
S113183090959B01AC01BD01CF010895F894FFCFB1
S11318400000803F000000000000803F0000000016
S11318500000803F0000803F000000000000000006
S11318600000803F1E1C100C04808C98A5B0BCC6E0
S1131870D0DAE2EAF0F5FAFDFEFFFEFDFAF5F0EA51
S1131880E2DAD0C6BCB0A5988C8073675A4F43394E
S11318902F251D150F0A050201000102050A0F1567
S11318A01D252F39434F5A677380A5CAEFFFFFFFE9
S11318B0FFFFFFFFFFFFFFFFFFFFFFFFEFCAA58052
S11318C05A35100000000000000000000000000075
S11318D00000000000000000000000000000000004
S10D18E000000000000010355A005B
S9030000FC
