S0160000415454696E794E656F706978656C2E7372656391
S113000010C02AC029C028C027C026C025C024C0CB
S113001023C051C021C020C01FC01EC01DC01CC0B1
S11300201BC011241FBECFE5D2E0DEBFCDBF10E060
S1130030A0E6B0E0EEE9F7E002C005900D92A03A28
S1130040B107D9F720E0A0EAB0E001C01D92AC3CB2
S1130050B207E1F770D0A1C3D3CFBA9A28B32B7FEC
S113006038B334604FB7F8946115710509F421C0B1
S1130070FC01680F791F819198E038BB87FF28BB8A
S1130080880F000007F428BB000007F407F407F406
S113009007F407F407F407F407F407F407F407F484
S11300A007F407F407F407F49A9539F7E617F70706
S11300B011F74FBF08951F920F920FB60F9211249C
S11300C02F933F934F935F936F937F938F939F935C
S11300D0AF932091A0003091A1004091A2005091D3
S11300E0A3006091A4007091A5008091A600909156
S11300F0A700A1E046D32093A0003093A100409331
S1130100A2005093A3006093A4007093A500809371
S1130110A6009093A70082E882BFAF919F918F9130
S11301207F916F915F914F913F912F910F900FBEEF
S11301300F901F90189582E882BF82E089BF83E008
S113014083BF1092A0001092A1001092A2001092FE
S1130150A3001092A4001092A5001092A600109281
S1130160A7001092CA001092C9001092CB001092FE
S1130170C7001092C6001092C8001092C4001092DA
S1130180C3001092C5001092C1001092C0001092DA
S1130190C2001092BE001092BD001092BF001092D7
S11301A0BB001092BA001092BC001092B8001092DA
S11301B0B7001092B9001092B5001092B4001092DA
S11301C0B6001092B2001092B1001092B3001092D7
S11301D0AF001092AE001092B0001092AC001092DA
S11301E0AB001092AD001092A9001092A8001092DA
S11301F0AA007894CFE3D0E05091A0004091A100F0
S11302003091A2002091A3008091A4008091A500C8
S11302108091A6008091A700652F742F832F922FC1
S1130220A5D12AE037ED43E25CE32CD220E030E0B4
S113023040E251E427D26B017C0120E030E040E849
S113024052E402D165D1CB01BE0187D2FC01E05A50
S1130250FF4F80818093CA001092C9001092CB0096
S11302602BEA3AEA4AE652E4C701B601EDD050D18E
S1130270CB01BE0172D2FC01E05AFF4F8081809312
S1130280C7001092C6001092C80025E535E545E583
S113029052E4C701B601D8D03BD1CB01BE015DD237
S11302A0FC01E05AFF4F80818093C4001092C30088
S11302B01092C50020E030E040E452E4C701B601EA
S11302C0C3D026D1CB01BE0148D2FC01E05AFF4F76
S11302D080818093C1001092C0001092C2002BEA6A
S11302E03AEA4AE252E4C701B601AED011D1CB01D9
S11302F0BE0133D2FC01E05AFF4F80818093BE00DF
S11303001092BD001092BF0025E535E545E152E4A9
S1130310C701B60199D0FCD0CB01BE011ED2FC01AD
S1130320E05AFF4F80818093BB001092BA00109274
S1130330BC0020E030E040E052E4C701B60184D0C4
S1130340E7D0CB01BE0109D2FC01E05AFF4F808106
S11303508093B8001092B7001092B90025E535E5F6
S113036045ED51E4C701B6016FD0D2D0CB01BE0137
S1130370F4D1FC01E05AFF4F80818093B5001092C4
S1130380B4001092B6002BEA3AEA4AEA51E4C701F3
S1130390B6015AD0BDD0CB01BE01DFD1FC01E05A79
S11303A0FF4F80818093B2001092B1001092B3008D
S11303B020E030E040E851E4C701B60145D0A8D0C0
S11303C0CB01BE01CAD1FC01E05AFF4F808180936A
S11303D0AF001092AE001092B0002BEA3AEA4AE263
S11303E051E4C701B60130D093D0CB01BE01B5D1E1
S11303F0FC01E05AFF4F80818093AC001092AB0067
S11304001092AD002BEA3AEA4AEA50E4C701B60179
S11304101BD07ED0CB01BE01A0D1FC01E05AFF4F1E
S113042080818093A9001092A8001092AA008FE006
S113043097E20197F1F700C0000064E270E088EAF7
S113044090E00BDED9CE5058BB27AA270ED0E0C0CF
S1130450D1D030F0D6D020F031F49F3F11F41EF407
S1130460C6C00EF4E095E7FBBCC0E92FE2D080F3F0
S1130470BA17620773078407950718F071F49EF59D
S1130480FAC00EF4E0950B2EBA2FA02D0B01B90182
S113049090010C01CA01A0011124FF27591B99F0F6
S11304A0593F50F4503E68F11A16F040A22F232F02
S11304B0342F4427585FF3CF469537952795A79552
S11304C0F0405395C9F77EF41F16BA0B620B730BF9
S11304D0840BBAF09150A1F0FF0FBB1F661F771F6A
S11304E0881FC2F70EC0BA0F621F731F841F48F41F
S11304F0879577956795B795F7959E3F08F0B3CFA5
S11305009395880F08F09927EE0F9795879508958E
S113051098D088F09F5790F0B92F9927B751A0F041
S1130520D1F0660F771F881F991F1AF0BA95C9F783
S113053012C0B13081F09FD0B1E008959CC0672F04
S1130540782F8827B85F39F0B93FCCF38695779533
S11305506795B395D9F73EF490958095709561951C
S11305607F4F8F4F9F4F0895E89409C097FB3EF447
S113057090958095709561957F4F8F4F9F4F9923EC
S1130580A9F0F92F96E9BB279395F695879577956A
S11305906795B795F111F8CFFAF4BB0F11F460FF2A
S11305A01BC06F5F7F4F8F4F9F4F16C0882311F082
S11305B096E911C0772321F09EE8872F762F05C096
S11305C0662371F096E8862F70E060E02AF09A9531
S11305D0660F771F881FDAF7880F9695879597F926
S11305E0089597F99F6780E870E060E008959FEFB1
S11305F080EC089500240A941616170618060906B6
S1130600089500240A941216130614060506089584
S1130610092E0394000C11F4882352F0BB0F40F40C
S1130620BF2B11F460FF04C06F5F7F4F8F4F9F4F4C
S1130630089557FD9058440F551F59F05F3F71F0CE
S11306404795880F97FB991F61F09F3F79F0879535
S11306500895121613061406551FF2CF4695F1DFBE
S113066008C0161617061806991FF1CF869571054E
S1130670610508940895E894BB2766277727CB0182
S113068097F908950AD0C4CFB5DF28F0BADF18F07F
S1130690952309F0A6CFABCFEFCFCBDFA8F39923F7
S11306A0D9F35523C9F3950F50E0551FAA27EE2718
S11306B0FF27BB2700240894679520F4E20FF31F5B
S11306C0B41F0A1E220F331F441FAA1F6695A9F7E1
S11306D0779530F4F30FB41F0A1E121E08F46395C5
S11306E0330F441FAA1F221F769599F7879520F48C
S11306F0B40F0A1E121E631F440FAA1F221F331FAA
S11307008695A9F7862F712D602D11249F5750408F
S11307108AF0E1F088234AF0EE0FFF1FBB1F661F2B
S1130720771F881F91505040A9F79E3F510570F0E4
S113073058CFA2CF5F3FECF3983EDCF386957795D4
S11307406795B795F795E7959F5FC1F7FE2B880FDF
S1130750911D9695879597F90895AA1BBB1B51E1A6
S113076007C0AA1FBB1FA617B70710F0A61BB70B1D
S1130770881F991F5A95A9F780959095BC01CD01C2
S113078008950024A7FD00942A0F301D401D501D1C
S1110790601D701D801D901D0895F894FFCF0C
S113079E8996A2AEB9C4CED7DFE6ECF2F5F8FAFA32
S11307AEF9F7F3EFE9E2DAD1C8BDB2A79B8F8276EF
S11307BE695D51463B31271E17100A0603010000DE
S11307CE0205090F151C252E38434E5A66737F00F9
S9030000FC
